{
  "_format": "hh-sol-artifact-1",
  "contractName": "TicketSale",
  "sourceName": "contracts/TicketSale.sol",
  "abi": [
    {
      "inputs": [
        {
          "internalType": "uint256",
          "name": "numTickets",
          "type": "uint256"
        },
        {
          "internalType": "uint256",
          "name": "price",
          "type": "uint256"
        }
      ],
      "stateMutability": "nonpayable",
      "type": "constructor"
    },
    {
      "anonymous": false,
      "inputs": [
        {
          "indexed": false,
          "internalType": "address",
          "name": "buyer",
          "type": "address"
        },
        {
          "indexed": false,
          "internalType": "uint256",
          "name": "ticketId",
          "type": "uint256"
        }
      ],
      "name": "TicketPurchased",
      "type": "event"
    },
    {
      "anonymous": false,
      "inputs": [
        {
          "indexed": false,
          "internalType": "address",
          "name": "seller",
          "type": "address"
        },
        {
          "indexed": false,
          "internalType": "address",
          "name": "buyer",
          "type": "address"
        },
        {
          "indexed": false,
          "internalType": "uint256",
          "name": "ticketId",
          "type": "uint256"
        },
        {
          "indexed": false,
          "internalType": "uint256",
          "name": "price",
          "type": "uint256"
        }
      ],
      "name": "TicketResold",
      "type": "event"
    },
    {
      "anonymous": false,
      "inputs": [
        {
          "indexed": false,
          "internalType": "address",
          "name": "buyer1",
          "type": "address"
        },
        {
          "indexed": false,
          "internalType": "uint256",
          "name": "ticketId1",
          "type": "uint256"
        },
        {
          "indexed": false,
          "internalType": "address",
          "name": "buyer2",
          "type": "address"
        },
        {
          "indexed": false,
          "internalType": "uint256",
          "name": "ticketId2",
          "type": "uint256"
        }
      ],
      "name": "TicketsSwapped",
      "type": "event"
    },
    {
      "inputs": [
        {
          "internalType": "uint256",
          "name": "index",
          "type": "uint256"
        }
      ],
      "name": "acceptResale",
      "outputs": [],
      "stateMutability": "payable",
      "type": "function"
    },
    {
      "inputs": [
        {
          "internalType": "uint256",
          "name": "ticketId",
          "type": "uint256"
        }
      ],
      "name": "acceptSwap",
      "outputs": [],
      "stateMutability": "nonpayable",
      "type": "function"
    },
    {
      "inputs": [
        {
          "internalType": "uint256",
          "name": "ticketId",
          "type": "uint256"
        }
      ],
      "name": "buyTicket",
      "outputs": [],
      "stateMutability": "payable",
      "type": "function"
    },
    {
      "inputs": [],
      "name": "checkResale",
      "outputs": [
        {
          "components": [
            {
              "internalType": "uint256",
              "name": "ticketId",
              "type": "uint256"
            },
            {
              "internalType": "uint256",
              "name": "price",
              "type": "uint256"
            },
            {
              "internalType": "address",
              "name": "seller",
              "type": "address"
            }
          ],
          "internalType": "struct TicketSale.ResaleOffer[]",
          "name": "",
          "type": "tuple[]"
        }
      ],
      "stateMutability": "view",
      "type": "function"
    },
    {
      "inputs": [
        {
          "internalType": "address",
          "name": "person",
          "type": "address"
        }
      ],
      "name": "getTicketOf",
      "outputs": [
        {
          "internalType": "uint256",
          "name": "",
          "type": "uint256"
        }
      ],
      "stateMutability": "view",
      "type": "function"
    },
    {
      "inputs": [
        {
          "internalType": "uint256",
          "name": "ticketId",
          "type": "uint256"
        }
      ],
      "name": "offerSwap",
      "outputs": [],
      "stateMutability": "nonpayable",
      "type": "function"
    },
    {
      "inputs": [],
      "name": "owner",
      "outputs": [
        {
          "internalType": "address",
          "name": "",
          "type": "address"
        }
      ],
      "stateMutability": "view",
      "type": "function"
    },
    {
      "inputs": [
        {
          "internalType": "uint256",
          "name": "price",
          "type": "uint256"
        }
      ],
      "name": "resaleTicket",
      "outputs": [],
      "stateMutability": "nonpayable",
      "type": "function"
    },
    {
      "inputs": [
        {
          "internalType": "uint256",
          "name": "",
          "type": "uint256"
        }
      ],
      "name": "resaleTickets",
      "outputs": [
        {
          "internalType": "uint256",
          "name": "ticketId",
          "type": "uint256"
        },
        {
          "internalType": "uint256",
          "name": "price",
          "type": "uint256"
        },
        {
          "internalType": "address",
          "name": "seller",
          "type": "address"
        }
      ],
      "stateMutability": "view",
      "type": "function"
    },
    {
      "inputs": [
        {
          "internalType": "uint256",
          "name": "",
          "type": "uint256"
        }
      ],
      "name": "swapOffers",
      "outputs": [
        {
          "internalType": "address",
          "name": "",
          "type": "address"
        }
      ],
      "stateMutability": "view",
      "type": "function"
    },
    {
      "inputs": [
        {
          "internalType": "uint256",
          "name": "",
          "type": "uint256"
        }
      ],
      "name": "ticketOwners",
      "outputs": [
        {
          "internalType": "address",
          "name": "",
          "type": "address"
        }
      ],
      "stateMutability": "view",
      "type": "function"
    },
    {
      "inputs": [],
      "name": "ticketPrice",
      "outputs": [
        {
          "internalType": "uint256",
          "name": "",
          "type": "uint256"
        }
      ],
      "stateMutability": "view",
      "type": "function"
    },
    {
      "inputs": [],
      "name": "ticketsSold",
      "outputs": [
        {
          "internalType": "uint256",
          "name": "",
          "type": "uint256"
        }
      ],
      "stateMutability": "view",
      "type": "function"
    },
    {
      "inputs": [],
      "name": "totalTickets",
      "outputs": [
        {
          "internalType": "uint256",
          "name": "",
          "type": "uint256"
        }
      ],
      "stateMutability": "view",
      "type": "function"
    }
  ],
  "bytecode": "0x608060405234801561001057600080fd5b50604051611c22380380611c22833981810160405281019061003291906100c2565b336000806101000a81548173ffffffffffffffffffffffffffffffffffffffff021916908373ffffffffffffffffffffffffffffffffffffffff16021790555081600281905550806001819055505050610102565b600080fd5b6000819050919050565b61009f8161008c565b81146100aa57600080fd5b50565b6000815190506100bc81610096565b92915050565b600080604083850312156100d9576100d8610087565b5b60006100e7858286016100ad565b92505060206100f8858286016100ad565b9150509250929050565b611b11806101116000396000f3fe6080604052600436106100dd5760003560e01c80638f15024f1161007f578063a3c1a1fe11610059578063a3c1a1fe146102a6578063c4a4be83146102cf578063dd11247e146102fa578063eb2dbcf614610325576100dd565b80638f15024f14610222578063943ba2121461024d578063a13f1c6214610269576100dd565b8063406b2c2c116100bb578063406b2c2c14610173578063675b2e741461019c57806367dd74ca146101db5780638da5cb5b146101f7576100dd565b80630412f4ab146100e25780631209b1f61461011f5780631bf330041461014a575b600080fd5b3480156100ee57600080fd5b5061010960048036038101906101049190611176565b610362565b60405161011691906111bc565b60405180910390f35b34801561012b57600080fd5b50610134610400565b60405161014191906111bc565b60405180910390f35b34801561015657600080fd5b50610171600480360381019061016c9190611203565b610406565b005b34801561017f57600080fd5b5061019a60048036038101906101959190611203565b6106fb565b005b3480156101a857600080fd5b506101c360048036038101906101be9190611203565b6107f1565b6040516101d29392919061123f565b60405180910390f35b6101f560048036038101906101f09190611203565b61084b565b005b34801561020357600080fd5b5061020c610a73565b6040516102199190611276565b60405180910390f35b34801561022e57600080fd5b50610237610a97565b60405161024491906111bc565b60405180910390f35b61026760048036038101906102629190611203565b610a9d565b005b34801561027557600080fd5b50610290600480360381019061028b9190611203565b610ed1565b60405161029d9190611276565b60405180910390f35b3480156102b257600080fd5b506102cd60048036038101906102c89190611203565b610f04565b005b3480156102db57600080fd5b506102e4611011565b6040516102f191906113a0565b60405180910390f35b34801561030657600080fd5b5061030f6110da565b60405161031c91906111bc565b60405180910390f35b34801561033157600080fd5b5061034c60048036038101906103479190611203565b6110e0565b6040516103599190611276565b60405180910390f35b600080600190505b60025481116103f5578273ffffffffffffffffffffffffffffffffffffffff166004600083815260200190815260200160002060009054906101000a900473ffffffffffffffffffffffffffffffffffffffff1673ffffffffffffffffffffffffffffffffffffffff16036103e257809150506103fb565b80806103ed906113f1565b91505061036a565b50600090505b919050565b60015481565b600061041133610362565b03610451576040517f08c379a0000000000000000000000000000000000000000000000000000000008152600401610448906114bc565b60405180910390fd5b600073ffffffffffffffffffffffffffffffffffffffff166005600083815260200190815260200160002060009054906101000a900473ffffffffffffffffffffffffffffffffffffffff1673ffffffffffffffffffffffffffffffffffffffff16036104f3576040517f08c379a00000000000000000000000000000000000000000000000000000000081526004016104ea90611528565b60405180910390fd5b3373ffffffffffffffffffffffffffffffffffffffff166005600083815260200190815260200160002060009054906101000a900473ffffffffffffffffffffffffffffffffffffffff1673ffffffffffffffffffffffffffffffffffffffff1603610594576040517f08c379a000000000000000000000000000000000000000000000000000000000815260040161058b906115ba565b60405180910390fd5b600081905060006005600084815260200190815260200160002060009054906101000a900473ffffffffffffffffffffffffffffffffffffffff16905060006105dc33610362565b9050336004600085815260200190815260200160002060006101000a81548173ffffffffffffffffffffffffffffffffffffffff021916908373ffffffffffffffffffffffffffffffffffffffff160217905550816004600083815260200190815260200160002060006101000a81548173ffffffffffffffffffffffffffffffffffffffff021916908373ffffffffffffffffffffffffffffffffffffffff1602179055506005600084815260200190815260200160002060006101000a81549073ffffffffffffffffffffffffffffffffffffffff02191690557f86427c235a24c7b70f880ae56d1226bece8b067e6184effbdde4d76f3312c0b6828433846040516106ed94939291906115da565b60405180910390a150505050565b3373ffffffffffffffffffffffffffffffffffffffff166004600083815260200190815260200160002060009054906101000a900473ffffffffffffffffffffffffffffffffffffffff1673ffffffffffffffffffffffffffffffffffffffff161461079c576040517f08c379a00000000000000000000000000000000000000000000000000000000081526004016107939061166b565b60405180910390fd5b336005600083815260200190815260200160002060006101000a81548173ffffffffffffffffffffffffffffffffffffffff021916908373ffffffffffffffffffffffffffffffffffffffff16021790555050565b6006818154811061080157600080fd5b90600052602060002090600302016000915090508060000154908060010154908060020160009054906101000a900473ffffffffffffffffffffffffffffffffffffffff16905083565b60008111801561085d57506002548111155b61089c576040517f08c379a0000000000000000000000000000000000000000000000000000000008152600401610893906116d7565b60405180910390fd5b600073ffffffffffffffffffffffffffffffffffffffff166004600083815260200190815260200160002060009054906101000a900473ffffffffffffffffffffffffffffffffffffffff1673ffffffffffffffffffffffffffffffffffffffff161461093e576040517f08c379a000000000000000000000000000000000000000000000000000000000815260040161093590611743565b60405180910390fd5b6001543414610982576040517f08c379a0000000000000000000000000000000000000000000000000000000008152600401610979906117af565b60405180910390fd5b600061098d33610362565b146109cd576040517f08c379a00000000000000000000000000000000000000000000000000000000081526004016109c49061181b565b60405180910390fd5b336004600083815260200190815260200160002060006101000a81548173ffffffffffffffffffffffffffffffffffffffff021916908373ffffffffffffffffffffffffffffffffffffffff16021790555060036000815480929190610a32906113f1565b91905055507f0668f5b446eb814fe35b3206f43f14bd8567ba04ddaf7a3ee56516929ab22ccb3382604051610a6892919061183b565b60405180910390a150565b60008054906101000a900473ffffffffffffffffffffffffffffffffffffffff1681565b60035481565b6006805490508110610ae4576040517f08c379a0000000000000000000000000000000000000000000000000000000008152600401610adb906118b0565b60405180910390fd5b600060068281548110610afa57610af96118d0565b5b906000526020600020906003020160405180606001604052908160008201548152602001600182015481526020016002820160009054906101000a900473ffffffffffffffffffffffffffffffffffffffff1673ffffffffffffffffffffffffffffffffffffffff1673ffffffffffffffffffffffffffffffffffffffff1681525050905034816020015114610bc5576040517f08c379a0000000000000000000000000000000000000000000000000000000008152600401610bbc906117af565b60405180910390fd5b6000610bd033610362565b14610c10576040517f08c379a0000000000000000000000000000000000000000000000000000000008152600401610c079061181b565b60405180910390fd5b60006064600a8360200151610c2591906118ff565b610c2f9190611970565b90506000818360200151610c4391906119a1565b905033600460008560000151815260200190815260200160002060006101000a81548173ffffffffffffffffffffffffffffffffffffffff021916908373ffffffffffffffffffffffffffffffffffffffff160217905550826040015173ffffffffffffffffffffffffffffffffffffffff166108fc829081150290604051600060405180830381858888f19350505050158015610ce5573d6000803e3d6000fd5b5060008054906101000a900473ffffffffffffffffffffffffffffffffffffffff1673ffffffffffffffffffffffffffffffffffffffff166108fc839081150290604051600060405180830381858888f19350505050158015610d4c573d6000803e3d6000fd5b5060066001600680549050610d6191906119a1565b81548110610d7257610d716118d0565b5b906000526020600020906003020160068581548110610d9457610d936118d0565b5b906000526020600020906003020160008201548160000155600182015481600101556002820160009054906101000a900473ffffffffffffffffffffffffffffffffffffffff168160020160006101000a81548173ffffffffffffffffffffffffffffffffffffffff021916908373ffffffffffffffffffffffffffffffffffffffff1602179055509050506006805480610e3257610e316119d5565b5b600190038181906000526020600020906003020160008082016000905560018201600090556002820160006101000a81549073ffffffffffffffffffffffffffffffffffffffff0219169055505090557f9e967d5e3b1b196566efdee7a38b55632febcec0cc17f0e23b220d3cd6d204b783604001513385600001518660200151604051610ec39493929190611a04565b60405180910390a150505050565b60056020528060005260406000206000915054906101000a900473ffffffffffffffffffffffffffffffffffffffff1681565b6000610f0f33610362565b905060008103610f54576040517f08c379a0000000000000000000000000000000000000000000000000000000008152600401610f4b90611abb565b60405180910390fd5b600660405180606001604052808381526020018481526020013373ffffffffffffffffffffffffffffffffffffffff168152509080600181540180825580915050600190039060005260206000209060030201600090919091909150600082015181600001556020820151816001015560408201518160020160006101000a81548173ffffffffffffffffffffffffffffffffffffffff021916908373ffffffffffffffffffffffffffffffffffffffff16021790555050505050565b60606006805480602002602001604051908101604052809291908181526020016000905b828210156110d1578382906000526020600020906003020160405180606001604052908160008201548152602001600182015481526020016002820160009054906101000a900473ffffffffffffffffffffffffffffffffffffffff1673ffffffffffffffffffffffffffffffffffffffff1673ffffffffffffffffffffffffffffffffffffffff168152505081526020019060010190611035565b50505050905090565b60025481565b60046020528060005260406000206000915054906101000a900473ffffffffffffffffffffffffffffffffffffffff1681565b600080fd5b600073ffffffffffffffffffffffffffffffffffffffff82169050919050565b600061114382611118565b9050919050565b61115381611138565b811461115e57600080fd5b50565b6000813590506111708161114a565b92915050565b60006020828403121561118c5761118b611113565b5b600061119a84828501611161565b91505092915050565b6000819050919050565b6111b6816111a3565b82525050565b60006020820190506111d160008301846111ad565b92915050565b6111e0816111a3565b81146111eb57600080fd5b50565b6000813590506111fd816111d7565b92915050565b60006020828403121561121957611218611113565b5b6000611227848285016111ee565b91505092915050565b61123981611138565b82525050565b600060608201905061125460008301866111ad565b61126160208301856111ad565b61126e6040830184611230565b949350505050565b600060208201905061128b6000830184611230565b92915050565b600081519050919050565b600082825260208201905092915050565b6000819050602082019050919050565b6112c6816111a3565b82525050565b6112d581611138565b82525050565b6060820160008201516112f160008501826112bd565b50602082015161130460208501826112bd565b50604082015161131760408501826112cc565b50505050565b600061132983836112db565b60608301905092915050565b6000602082019050919050565b600061134d82611291565b611357818561129c565b9350611362836112ad565b8060005b8381101561139357815161137a888261131d565b975061138583611335565b925050600181019050611366565b5085935050505092915050565b600060208201905081810360008301526113ba8184611342565b905092915050565b7f4e487b7100000000000000000000000000000000000000000000000000000000600052601160045260246000fd5b60006113fc826111a3565b91507fffffffffffffffffffffffffffffffffffffffffffffffffffffffffffffffff820361142e5761142d6113c2565b5b600182019050919050565b600082825260208201905092915050565b7f596f75206e65656420746f206f776e2061207469636b657420746f207377617060008201527f2e00000000000000000000000000000000000000000000000000000000000000602082015250565b60006114a6602183611439565b91506114b18261144a565b604082019050919050565b600060208201905081810360008301526114d581611499565b9050919050565b7f4e6f2073776170206f6666657220666f7220796f7572207469636b65742e0000600082015250565b6000611512601e83611439565b915061151d826114dc565b602082019050919050565b6000602082019050818103600083015261154181611505565b9050919050565b7f43616e6e6f742061636365707420796f7572206f776e2073776170206f66666560008201527f722e000000000000000000000000000000000000000000000000000000000000602082015250565b60006115a4602283611439565b91506115af82611548565b604082019050919050565b600060208201905081810360008301526115d381611597565b9050919050565b60006080820190506115ef6000830187611230565b6115fc60208301866111ad565b6116096040830185611230565b61161660608301846111ad565b95945050505050565b7f596f7520646f6e2774206f776e2074686973207469636b65742e000000000000600082015250565b6000611655601a83611439565b91506116608261161f565b602082019050919050565b6000602082019050818103600083015261168481611648565b9050919050565b7f496e76616c6964207469636b65742049442e0000000000000000000000000000600082015250565b60006116c1601283611439565b91506116cc8261168b565b602082019050919050565b600060208201905081810360008301526116f0816116b4565b9050919050565b7f5469636b657420616c726561647920736f6c642e000000000000000000000000600082015250565b600061172d601483611439565b9150611738826116f7565b602082019050919050565b6000602082019050818103600083015261175c81611720565b9050919050565b7f496e636f7272656374207061796d656e7420616d6f756e742e00000000000000600082015250565b6000611799601983611439565b91506117a482611763565b602082019050919050565b600060208201905081810360008301526117c88161178c565b9050919050565b7f596f752063616e206f6e6c7920627579206f6e65207469636b65742e00000000600082015250565b6000611805601c83611439565b9150611810826117cf565b602082019050919050565b60006020820190508181036000830152611834816117f8565b9050919050565b60006040820190506118506000830185611230565b61185d60208301846111ad565b9392505050565b7f496e76616c696420726573616c65207469636b657420696e6465782e00000000600082015250565b600061189a601c83611439565b91506118a582611864565b602082019050919050565b600060208201905081810360008301526118c98161188d565b9050919050565b7f4e487b7100000000000000000000000000000000000000000000000000000000600052603260045260246000fd5b600061190a826111a3565b9150611915836111a3565b9250828202611923816111a3565b9150828204841483151761193a576119396113c2565b5b5092915050565b7f4e487b7100000000000000000000000000000000000000000000000000000000600052601260045260246000fd5b600061197b826111a3565b9150611986836111a3565b92508261199657611995611941565b5b828204905092915050565b60006119ac826111a3565b91506119b7836111a3565b92508282039050818111156119cf576119ce6113c2565b5b92915050565b7f4e487b7100000000000000000000000000000000000000000000000000000000600052603160045260246000fd5b6000608082019050611a196000830187611230565b611a266020830186611230565b611a3360408301856111ad565b611a4060608301846111ad565b95945050505050565b7f596f7520646f6e2774206f776e2061207469636b657420746f20726573656c6c60008201527f2e00000000000000000000000000000000000000000000000000000000000000602082015250565b6000611aa5602183611439565b9150611ab082611a49565b604082019050919050565b60006020820190508181036000830152611ad481611a98565b905091905056fea26469706673582212204443c15cfd6b329442d1005d003b5b95226d4b79be771011eafdce25462abce364736f6c634300081c0033",
  "linkReferences": {},
  "deployedLinkReferences": {}
}